{
  "address": "0x02D60e140dc507C7cEFd4adf71aFa8bFaDEC0977",
  "abi": [
    {
      "inputs": [
        {
          "internalType": "address",
          "name": "vrfCordinatorV2",
          "type": "address"
        },
        {
          "internalType": "uint256",
          "name": "entranceFee",
          "type": "uint256"
        },
        {
          "internalType": "bytes32",
          "name": "gasLane",
          "type": "bytes32"
        },
        {
          "internalType": "uint64",
          "name": "subscriptionId",
          "type": "uint64"
        },
        {
          "internalType": "uint32",
          "name": "callbackGasLimit",
          "type": "uint32"
        },
        {
          "internalType": "uint256",
          "name": "interval",
          "type": "uint256"
        }
      ],
      "stateMutability": "nonpayable",
      "type": "constructor"
    },
    {
      "inputs": [
        {
          "internalType": "address",
          "name": "have",
          "type": "address"
        },
        {
          "internalType": "address",
          "name": "want",
          "type": "address"
        }
      ],
      "name": "OnlyCoordinatorCanFulfill",
      "type": "error"
    },
    {
      "inputs": [
        {
          "internalType": "uint256",
          "name": "currentBalance",
          "type": "uint256"
        },
        {
          "internalType": "uint256",
          "name": "numPlayers",
          "type": "uint256"
        },
        {
          "internalType": "uint256",
          "name": "raffelState",
          "type": "uint256"
        }
      ],
      "name": "Raffle_UpkeepNotNeeded",
      "type": "error"
    },
    {
      "inputs": [],
      "name": "Raffle__NotEnoughEthEntered",
      "type": "error"
    },
    {
      "inputs": [],
      "name": "Raffle__NotOpen",
      "type": "error"
    },
    {
      "inputs": [],
      "name": "Raffle__TransactionFailed",
      "type": "error"
    },
    {
      "anonymous": false,
      "inputs": [
        {
          "indexed": true,
          "internalType": "address",
          "name": "player",
          "type": "address"
        }
      ],
      "name": "RaffleEnter",
      "type": "event"
    },
    {
      "anonymous": false,
      "inputs": [
        {
          "indexed": true,
          "internalType": "uint256",
          "name": "requestId",
          "type": "uint256"
        }
      ],
      "name": "RequestedRaffleWinner",
      "type": "event"
    },
    {
      "anonymous": false,
      "inputs": [
        {
          "indexed": true,
          "internalType": "address",
          "name": "winner",
          "type": "address"
        }
      ],
      "name": "WinnerPicked",
      "type": "event"
    },
    {
      "inputs": [
        {
          "internalType": "bytes",
          "name": "",
          "type": "bytes"
        }
      ],
      "name": "checkUpkeep",
      "outputs": [
        {
          "internalType": "bool",
          "name": "upkeepNeeded",
          "type": "bool"
        },
        {
          "internalType": "bytes",
          "name": "",
          "type": "bytes"
        }
      ],
      "stateMutability": "nonpayable",
      "type": "function"
    },
    {
      "inputs": [],
      "name": "enterRaffle",
      "outputs": [],
      "stateMutability": "payable",
      "type": "function"
    },
    {
      "inputs": [],
      "name": "getEntranceFee",
      "outputs": [
        {
          "internalType": "uint256",
          "name": "",
          "type": "uint256"
        }
      ],
      "stateMutability": "view",
      "type": "function"
    },
    {
      "inputs": [],
      "name": "getInterval",
      "outputs": [
        {
          "internalType": "uint256",
          "name": "",
          "type": "uint256"
        }
      ],
      "stateMutability": "view",
      "type": "function"
    },
    {
      "inputs": [],
      "name": "getLatestTimeStamp",
      "outputs": [
        {
          "internalType": "uint256",
          "name": "",
          "type": "uint256"
        }
      ],
      "stateMutability": "view",
      "type": "function"
    },
    {
      "inputs": [],
      "name": "getNumWords",
      "outputs": [
        {
          "internalType": "uint256",
          "name": "",
          "type": "uint256"
        }
      ],
      "stateMutability": "pure",
      "type": "function"
    },
    {
      "inputs": [],
      "name": "getNumberOfPlayers",
      "outputs": [
        {
          "internalType": "uint256",
          "name": "",
          "type": "uint256"
        }
      ],
      "stateMutability": "view",
      "type": "function"
    },
    {
      "inputs": [
        {
          "internalType": "uint256",
          "name": "index",
          "type": "uint256"
        }
      ],
      "name": "getPlayer",
      "outputs": [
        {
          "internalType": "address",
          "name": "",
          "type": "address"
        }
      ],
      "stateMutability": "view",
      "type": "function"
    },
    {
      "inputs": [],
      "name": "getRaffleState",
      "outputs": [
        {
          "internalType": "enum Raffle.RaffleState",
          "name": "",
          "type": "uint8"
        }
      ],
      "stateMutability": "view",
      "type": "function"
    },
    {
      "inputs": [],
      "name": "getRecentWinner",
      "outputs": [
        {
          "internalType": "address",
          "name": "",
          "type": "address"
        }
      ],
      "stateMutability": "view",
      "type": "function"
    },
    {
      "inputs": [],
      "name": "grtRequestConfirmations",
      "outputs": [
        {
          "internalType": "uint256",
          "name": "",
          "type": "uint256"
        }
      ],
      "stateMutability": "pure",
      "type": "function"
    },
    {
      "inputs": [
        {
          "internalType": "bytes",
          "name": "",
          "type": "bytes"
        }
      ],
      "name": "performUpkeep",
      "outputs": [],
      "stateMutability": "nonpayable",
      "type": "function"
    },
    {
      "inputs": [
        {
          "internalType": "uint256",
          "name": "requestId",
          "type": "uint256"
        },
        {
          "internalType": "uint256[]",
          "name": "randomWords",
          "type": "uint256[]"
        }
      ],
      "name": "rawFulfillRandomWords",
      "outputs": [],
      "stateMutability": "nonpayable",
      "type": "function"
    }
  ],
  "transactionHash": "0x4152b3913454a65d22c8c80d263ca949378337b210e57c406fb22dc107c98cf8",
  "args": [
    "0x6168499c0cFfCaCD319c818142124B7A15E857ab",
    "10000000000000000",
    "0xd89b2bf150e3b9e13446986e571fb9cab24b13cea0a43ea20a6049a85cc807cc",
    "9094",
    "500000",
    "30"
  ],
  "numDeployments": 1,
  "solcInputHash": "ed94ff04d351d535f53ac67482f861a9",
  "bytecode": "0x6101606040523480156200001257600080fd5b506040516200181a3803806200181a833981810160405281019062000038919062000294565b858073ffffffffffffffffffffffffffffffffffffffff1660808173ffffffffffffffffffffffffffffffffffffffff1681525050508460a081815250508573ffffffffffffffffffffffffffffffffffffffff1660c08173ffffffffffffffffffffffffffffffffffffffff16815250508360e081815250508267ffffffffffffffff166101008167ffffffffffffffff16815250508163ffffffff166101208163ffffffff16815250506000600160146101000a81548160ff021916908360018111156200010d576200010c62000330565b5b0217905550426002819055508061014081815250505050505050506200035f565b600080fd5b600073ffffffffffffffffffffffffffffffffffffffff82169050919050565b6000620001608262000133565b9050919050565b620001728162000153565b81146200017e57600080fd5b50565b600081519050620001928162000167565b92915050565b6000819050919050565b620001ad8162000198565b8114620001b957600080fd5b50565b600081519050620001cd81620001a2565b92915050565b6000819050919050565b620001e881620001d3565b8114620001f457600080fd5b50565b6000815190506200020881620001dd565b92915050565b600067ffffffffffffffff82169050919050565b6200022d816200020e565b81146200023957600080fd5b50565b6000815190506200024d8162000222565b92915050565b600063ffffffff82169050919050565b6200026e8162000253565b81146200027a57600080fd5b50565b6000815190506200028e8162000263565b92915050565b60008060008060008060c08789031215620002b457620002b36200012e565b5b6000620002c489828a0162000181565b9650506020620002d789828a01620001bc565b9550506040620002ea89828a01620001f7565b9450506060620002fd89828a016200023c565b93505060806200031089828a016200027d565b92505060a06200032389828a01620001bc565b9150509295509295509295565b7f4e487b7100000000000000000000000000000000000000000000000000000000600052602160045260246000fd5b60805160a05160c05160e05161010051610120516101405161144b620003cf600039600081816107e90152610857015260006106a50152600061068201526000610661015260006106250152600081816102fa01526103f7015260008181610337015261038b015261144b6000f3fe6080604052600436106100c25760003560e01c8063473f1ddc1161007f57806391ad27b41161005957806391ad27b4146102385780639ef4e92e14610263578063e55ae4e81461028e578063fd6673f5146102cb576100c2565b8063473f1ddc146101a457806353a2c19a146101cf5780636e04ff0d146101fa576100c2565b806309bc33a7146100c7578063115cbaf5146100f25780631fe543e31461011d5780632cfcc53914610146578063320229eb146101505780634585e33b1461017b575b600080fd5b3480156100d357600080fd5b506100dc6102f6565b6040516100e99190610bcc565b60405180910390f35b3480156100fe57600080fd5b5061010761031e565b6040516101149190610c5e565b60405180910390f35b34801561012957600080fd5b50610144600480360381019061013f9190610e12565b610335565b005b61014e6103f5565b005b34801561015c57600080fd5b50610165610564565b6040516101729190610bcc565b60405180910390f35b34801561018757600080fd5b506101a2600480360381019061019d9190610ec9565b61056e565b005b3480156101b057600080fd5b506101b961076d565b6040516101c69190610f57565b60405180910390f35b3480156101db57600080fd5b506101e4610797565b6040516101f19190610bcc565b60405180910390f35b34801561020657600080fd5b50610221600480360381019061021c9190611027565b6107a6565b60405161022f929190611113565b60405180910390f35b34801561024457600080fd5b5061024d610853565b60405161025a9190610bcc565b60405180910390f35b34801561026f57600080fd5b5061027861087b565b6040516102859190610bcc565b60405180910390f35b34801561029a57600080fd5b506102b560048036038101906102b09190611143565b610888565b6040516102c29190610f57565b60405180910390f35b3480156102d757600080fd5b506102e06108cf565b6040516102ed9190610bcc565b60405180910390f35b60007f0000000000000000000000000000000000000000000000000000000000000000905090565b6000600160149054906101000a900460ff16905090565b7f000000000000000000000000000000000000000000000000000000000000000073ffffffffffffffffffffffffffffffffffffffff163373ffffffffffffffffffffffffffffffffffffffff16146103e757337f00000000000000000000000000000000000000000000000000000000000000006040517f1cf993f40000000000000000000000000000000000000000000000000000000081526004016103de929190611170565b60405180910390fd5b6103f182826108db565b5050565b7f000000000000000000000000000000000000000000000000000000000000000034101561044f576040517f066d781f00000000000000000000000000000000000000000000000000000000815260040160405180910390fd5b6000600181111561046357610462610be7565b5b600160149054906101000a900460ff16600181111561048557610484610be7565b5b146104bc576040517f1425571c00000000000000000000000000000000000000000000000000000000815260040160405180910390fd5b6000339080600181540180825580915050600190039060005260206000200160009091909190916101000a81548173ffffffffffffffffffffffffffffffffffffffff021916908373ffffffffffffffffffffffffffffffffffffffff1602179055503373ffffffffffffffffffffffffffffffffffffffff167f0805e1d667bddb8a95f0f09880cf94f403fb596ce79928d9f29b74203ba284d460405160405180910390a2565b6000600254905090565b6000610588604051806020016040528060008152506107a6565b509050806105f75747600080549050600160149054906101000a900460ff1660018111156105b9576105b8610be7565b5b6040517fe059521b0000000000000000000000000000000000000000000000000000000081526004016105ee93929190611199565b60405180910390fd5b60018060146101000a81548160ff0219169083600181111561061c5761061b610be7565b5b021790555060007f000000000000000000000000000000000000000000000000000000000000000073ffffffffffffffffffffffffffffffffffffffff16635d3b1d307f00000000000000000000000000000000000000000000000000000000000000007f000000000000000000000000000000000000000000000000000000000000000060037f000000000000000000000000000000000000000000000000000000000000000060016040518663ffffffff1660e01b81526004016106e6959493929190611248565b602060405180830381600087803b15801561070057600080fd5b505af1158015610714573d6000803e3d6000fd5b505050506040513d601f19601f8201168201806040525081019061073891906112b0565b9050807fcd6e45c8998311cab7e9d4385596cac867e20a0587194b954fa3a731c93ce78b60405160405180910390a250505050565b6000600160009054906101000a900473ffffffffffffffffffffffffffffffffffffffff16905090565b6000600163ffffffff16905090565b600060606000600160149054906101000a900460ff1660018111156107ce576107cd610be7565b5b600060018111156107e2576107e1610be7565b5b14905060007f000000000000000000000000000000000000000000000000000000000000000060025442610816919061130c565b119050600080600080549050119050600080471190508380156108365750825b801561083f5750815b80156108485750805b955050505050915091565b60007f0000000000000000000000000000000000000000000000000000000000000000905090565b6000600361ffff16905090565b600080828154811061089d5761089c611340565b5b9060005260206000200160009054906101000a900473ffffffffffffffffffffffffffffffffffffffff169050919050565b60008080549050905090565b60008080549050826000815181106108f6576108f5611340565b5b6020026020010151610908919061139e565b9050600080828154811061091f5761091e611340565b5b9060005260206000200160009054906101000a900473ffffffffffffffffffffffffffffffffffffffff16905080600160006101000a81548173ffffffffffffffffffffffffffffffffffffffff021916908373ffffffffffffffffffffffffffffffffffffffff1602179055506000600160146101000a81548160ff021916908360018111156109b3576109b2610be7565b5b0217905550600067ffffffffffffffff8111156109d3576109d2610ccf565b5b604051908082528060200260200182016040528015610a015781602001602082028036833780820191505090505b5060009080519060200190610a17929190610b0c565b504260028190555060008173ffffffffffffffffffffffffffffffffffffffff1647604051610a4590611400565b60006040518083038185875af1925050503d8060008114610a82576040519150601f19603f3d011682016040523d82523d6000602084013e610a87565b606091505b5050905080610ac2576040517f8dea0f0700000000000000000000000000000000000000000000000000000000815260040160405180910390fd5b8173ffffffffffffffffffffffffffffffffffffffff167f5b690ec4a06fe979403046eaeea5b3ce38524683c3001f662c8b5a829632f7df60405160405180910390a25050505050565b828054828255906000526020600020908101928215610b85579160200282015b82811115610b845782518260006101000a81548173ffffffffffffffffffffffffffffffffffffffff021916908373ffffffffffffffffffffffffffffffffffffffff16021790555091602001919060010190610b2c565b5b509050610b929190610b96565b5090565b5b80821115610baf576000816000905550600101610b97565b5090565b6000819050919050565b610bc681610bb3565b82525050565b6000602082019050610be16000830184610bbd565b92915050565b7f4e487b7100000000000000000000000000000000000000000000000000000000600052602160045260246000fd5b60028110610c2757610c26610be7565b5b50565b6000819050610c3882610c16565b919050565b6000610c4882610c2a565b9050919050565b610c5881610c3d565b82525050565b6000602082019050610c736000830184610c4f565b92915050565b6000604051905090565b600080fd5b600080fd5b610c9681610bb3565b8114610ca157600080fd5b50565b600081359050610cb381610c8d565b92915050565b600080fd5b6000601f19601f8301169050919050565b7f4e487b7100000000000000000000000000000000000000000000000000000000600052604160045260246000fd5b610d0782610cbe565b810181811067ffffffffffffffff82111715610d2657610d25610ccf565b5b80604052505050565b6000610d39610c79565b9050610d458282610cfe565b919050565b600067ffffffffffffffff821115610d6557610d64610ccf565b5b602082029050602081019050919050565b600080fd5b6000610d8e610d8984610d4a565b610d2f565b90508083825260208201905060208402830185811115610db157610db0610d76565b5b835b81811015610dda5780610dc68882610ca4565b845260208401935050602081019050610db3565b5050509392505050565b600082601f830112610df957610df8610cb9565b5b8135610e09848260208601610d7b565b91505092915050565b60008060408385031215610e2957610e28610c83565b5b6000610e3785828601610ca4565b925050602083013567ffffffffffffffff811115610e5857610e57610c88565b5b610e6485828601610de4565b9150509250929050565b600080fd5b60008083601f840112610e8957610e88610cb9565b5b8235905067ffffffffffffffff811115610ea657610ea5610e6e565b5b602083019150836001820283011115610ec257610ec1610d76565b5b9250929050565b60008060208385031215610ee057610edf610c83565b5b600083013567ffffffffffffffff811115610efe57610efd610c88565b5b610f0a85828601610e73565b92509250509250929050565b600073ffffffffffffffffffffffffffffffffffffffff82169050919050565b6000610f4182610f16565b9050919050565b610f5181610f36565b82525050565b6000602082019050610f6c6000830184610f48565b92915050565b600080fd5b600067ffffffffffffffff821115610f9257610f91610ccf565b5b610f9b82610cbe565b9050602081019050919050565b82818337600083830152505050565b6000610fca610fc584610f77565b610d2f565b905082815260208101848484011115610fe657610fe5610f72565b5b610ff1848285610fa8565b509392505050565b600082601f83011261100e5761100d610cb9565b5b813561101e848260208601610fb7565b91505092915050565b60006020828403121561103d5761103c610c83565b5b600082013567ffffffffffffffff81111561105b5761105a610c88565b5b61106784828501610ff9565b91505092915050565b60008115159050919050565b61108581611070565b82525050565b600081519050919050565b600082825260208201905092915050565b60005b838110156110c55780820151818401526020810190506110aa565b838111156110d4576000848401525b50505050565b60006110e58261108b565b6110ef8185611096565b93506110ff8185602086016110a7565b61110881610cbe565b840191505092915050565b6000604082019050611128600083018561107c565b818103602083015261113a81846110da565b90509392505050565b60006020828403121561115957611158610c83565b5b600061116784828501610ca4565b91505092915050565b60006040820190506111856000830185610f48565b6111926020830184610f48565b9392505050565b60006060820190506111ae6000830186610bbd565b6111bb6020830185610bbd565b6111c86040830184610bbd565b949350505050565b6000819050919050565b6111e3816111d0565b82525050565b600067ffffffffffffffff82169050919050565b611206816111e9565b82525050565b600061ffff82169050919050565b6112238161120c565b82525050565b600063ffffffff82169050919050565b61124281611229565b82525050565b600060a08201905061125d60008301886111da565b61126a60208301876111fd565b611277604083018661121a565b6112846060830185611239565b6112916080830184611239565b9695505050505050565b6000815190506112aa81610c8d565b92915050565b6000602082840312156112c6576112c5610c83565b5b60006112d48482850161129b565b91505092915050565b7f4e487b7100000000000000000000000000000000000000000000000000000000600052601160045260246000fd5b600061131782610bb3565b915061132283610bb3565b925082821015611335576113346112dd565b5b828203905092915050565b7f4e487b7100000000000000000000000000000000000000000000000000000000600052603260045260246000fd5b7f4e487b7100000000000000000000000000000000000000000000000000000000600052601260045260246000fd5b60006113a982610bb3565b91506113b483610bb3565b9250826113c4576113c361136f565b5b828206905092915050565b600081905092915050565b50565b60006113ea6000836113cf565b91506113f5826113da565b600082019050919050565b600061140b826113dd565b915081905091905056fea2646970667358221220ffd37025412b0de43defd996ab669b7aafb36cb3c2984d25dd430ff7ba63c7fe64736f6c63430008090033",
  "devdoc": {
    "kind": "dev",
    "methods": {
      "checkUpkeep(bytes)": {
        "details": "this is the function that the Cahinlink keeper nodes call they look for the `upkeepNeeded` to return true . the follwing shoud be true in order to return true:"
      }
    },
    "version": 1
  },
  "userdoc": {
    "kind": "user",
    "methods": {},
    "version": 1
  },
  "storageLayout": {
    "storage": [
      {
        "astId": 196,
        "contract": "contracts/Raffle.sol:Raffle",
        "label": "s_players",
        "offset": 0,
        "slot": "0",
        "type": "t_array(t_address_payable)dyn_storage"
      },
      {
        "astId": 213,
        "contract": "contracts/Raffle.sol:Raffle",
        "label": "s_recentWinner",
        "offset": 0,
        "slot": "1",
        "type": "t_address"
      },
      {
        "astId": 216,
        "contract": "contracts/Raffle.sol:Raffle",
        "label": "s_raffelState",
        "offset": 20,
        "slot": "1",
        "type": "t_enum(RaffleState)191"
      },
      {
        "astId": 218,
        "contract": "contracts/Raffle.sol:Raffle",
        "label": "s_lastTimeStamp",
        "offset": 0,
        "slot": "2",
        "type": "t_uint256"
      }
    ],
    "types": {
      "t_address": {
        "encoding": "inplace",
        "label": "address",
        "numberOfBytes": "20"
      },
      "t_address_payable": {
        "encoding": "inplace",
        "label": "address payable",
        "numberOfBytes": "20"
      },
      "t_array(t_address_payable)dyn_storage": {
        "base": "t_address_payable",
        "encoding": "dynamic_array",
        "label": "address payable[]",
        "numberOfBytes": "32"
      },
      "t_enum(RaffleState)191": {
        "encoding": "inplace",
        "label": "enum Raffle.RaffleState",
        "numberOfBytes": "1"
      },
      "t_uint256": {
        "encoding": "inplace",
        "label": "uint256",
        "numberOfBytes": "32"
      }
    }
  }
}